{
    "_format": "hh-sol-artifact-1",
    "contractName": "Querry",
    "sourceName": "contracts/Quester.sol",
    "abi": [
        {
            "inputs": [
                {
                    "internalType": "contract Quest",
                    "name": "_token",
                    "type": "address"
                }
            ],
            "stateMutability": "nonpayable",
            "type": "constructor"
        },
        {
            "inputs": [
                {
                    "internalType": "address",
                    "name": "",
                    "type": "address"
                }
            ],
            "name": "bounty",
            "outputs": [
                {
                    "internalType": "uint256",
                    "name": "",
                    "type": "uint256"
                }
            ],
            "stateMutability": "view",
            "type": "function"
        },
        {
            "inputs": [
                {
                    "internalType": "uint256",
                    "name": "val",
                    "type": "uint256"
                }
            ],
            "name": "checker",
            "outputs": [
                {
                    "internalType": "bool",
                    "name": "success",
                    "type": "bool"
                }
            ],
            "stateMutability": "view",
            "type": "function"
        },
        {
            "inputs": [],
            "name": "getAllCards",
            "outputs": [
                {
                    "components": [
                        {
                            "internalType": "address",
                            "name": "querrier",
                            "type": "address"
                        },
                        {
                            "internalType": "string",
                            "name": "question",
                            "type": "string"
                        },
                        {
                            "internalType": "uint256",
                            "name": "timestamp",
                            "type": "uint256"
                        },
                        {
                            "internalType": "uint256",
                            "name": "bounty",
                            "type": "uint256"
                        }
                    ],
                    "internalType": "struct Querry.Card[]",
                    "name": "",
                    "type": "tuple[]"
                }
            ],
            "stateMutability": "view",
            "type": "function"
        },
        {
            "inputs": [],
            "name": "master",
            "outputs": [
                {
                    "internalType": "uint256",
                    "name": "",
                    "type": "uint256"
                }
            ],
            "stateMutability": "view",
            "type": "function"
        },
        {
            "inputs": [
                {
                    "internalType": "uint256",
                    "name": "_value",
                    "type": "uint256"
                },
                {
                    "internalType": "string",
                    "name": "_question",
                    "type": "string"
                }
            ],
            "name": "quest",
            "outputs": [],
            "stateMutability": "nonpayable",
            "type": "function"
        },
        {
            "inputs": [
                {
                    "internalType": "address",
                    "name": "",
                    "type": "address"
                }
            ],
            "name": "storedBalanceOf",
            "outputs": [
                {
                    "internalType": "uint256",
                    "name": "",
                    "type": "uint256"
                }
            ],
            "stateMutability": "view",
            "type": "function"
        },
        {
            "inputs": [],
            "name": "token",
            "outputs": [
                {
                    "internalType": "contract Quest",
                    "name": "",
                    "type": "address"
                }
            ],
            "stateMutability": "view",
            "type": "function"
        },
        {
            "inputs": [
                {
                    "internalType": "address",
                    "name": "_to",
                    "type": "address"
                },
                {
                    "internalType": "uint256",
                    "name": "_value",
                    "type": "uint256"
                }
            ],
            "name": "transferStored",
            "outputs": [],
            "stateMutability": "nonpayable",
            "type": "function"
        }
    ],
    "bytecode": "0x608060405260456000553480156200001657600080fd5b50604051620016523803806200165283398181016040528101906200003c919062000102565b80600160006101000a81548173ffffffffffffffffffffffffffffffffffffffff021916908373ffffffffffffffffffffffffffffffffffffffff1602179055505062000134565b600080fd5b600073ffffffffffffffffffffffffffffffffffffffff82169050919050565b6000620000b68262000089565b9050919050565b6000620000ca82620000a9565b9050919050565b620000dc81620000bd565b8114620000e857600080fd5b50565b600081519050620000fc81620000d1565b92915050565b6000602082840312156200011b576200011a62000084565b5b60006200012b84828501620000eb565b91505092915050565b61150e80620001446000396000f3fe608060405234801561001057600080fd5b50600436106100885760003560e01c8063cea135161161005b578063cea1351614610125578063edaba61114610143578063ee97f7f314610173578063fc0c546a1461019157610088565b806319f8c8851461008d5780632591b590146100bd57806368997737146100d957806394e05b2c146100f5575b600080fd5b6100a760048036038101906100a29190610968565b6101af565b6040516100b491906109ae565b60405180910390f35b6100d760048036038101906100d291906109f5565b6101c7565b005b6100f360048036038101906100ee9190610b7b565b610382565b005b61010f600480360381019061010a9190610bd7565b61066e565b60405161011c9190610c1f565b60405180910390f35b61012d610757565b60405161013a9190610dfc565b60405180910390f35b61015d60048036038101906101589190610968565b6108b2565b60405161016a91906109ae565b60405180910390f35b61017b6108ca565b60405161018891906109ae565b60405180910390f35b6101996108d0565b6040516101a69190610e7d565b60405180910390f35b60046020528060005260406000206000915090505481565b80600360003373ffffffffffffffffffffffffffffffffffffffff1673ffffffffffffffffffffffffffffffffffffffff168152602001908152602001600020541015610249576040517f08c379a000000000000000000000000000000000000000000000000000000000815260040161024090610ef5565b60405180910390fd5b80600360003373ffffffffffffffffffffffffffffffffffffffff1673ffffffffffffffffffffffffffffffffffffffff16815260200190815260200160002060008282546102989190610f44565b92505081905550600160009054906101000a900473ffffffffffffffffffffffffffffffffffffffff1673ffffffffffffffffffffffffffffffffffffffff1663a9059cbb83836040518363ffffffff1660e01b81526004016102fc929190610f87565b6020604051808303816000875af115801561031b573d6000803e3d6000fd5b505050506040513d601f19601f8201168201806040525081019061033f9190610fdc565b61037e576040517f08c379a000000000000000000000000000000000000000000000000000000000815260040161037590611055565b60405180910390fd5b5050565b81600160009054906101000a900473ffffffffffffffffffffffffffffffffffffffff1673ffffffffffffffffffffffffffffffffffffffff166370a08231336040518263ffffffff1660e01b81526004016103de9190611075565b602060405180830381865afa1580156103fb573d6000803e3d6000fd5b505050506040513d601f19601f8201168201806040525081019061041f91906110a5565b1015610460576040517f08c379a00000000000000000000000000000000000000000000000000000000081526004016104579061111e565b60405180910390fd5b600160009054906101000a900473ffffffffffffffffffffffffffffffffffffffff1673ffffffffffffffffffffffffffffffffffffffff1663c9db20ad33846040518363ffffffff1660e01b81526004016104bd929190610f87565b6020604051808303816000875af11580156104dc573d6000803e3d6000fd5b505050506040513d601f19601f820116820180604052508101906105009190610fdc565b61053f576040517f08c379a0000000000000000000000000000000000000000000000000000000008152600401610536906111b0565b60405180910390fd5b81600360003373ffffffffffffffffffffffffffffffffffffffff1673ffffffffffffffffffffffffffffffffffffffff168152602001908152602001600020600082825461058e91906111d0565b92505081905550600260405180608001604052803373ffffffffffffffffffffffffffffffffffffffff16815260200183815260200142815260200184815250908060018154018082558091505060019003906000526020600020906004020160009091909190915060008201518160000160006101000a81548173ffffffffffffffffffffffffffffffffffffffff021916908373ffffffffffffffffffffffffffffffffffffffff16021790555060208201518160010190816106539190611406565b50604082015181600201556060820151816003015550505050565b600081600160009054906101000a900473ffffffffffffffffffffffffffffffffffffffff1673ffffffffffffffffffffffffffffffffffffffff166370a08231336040518263ffffffff1660e01b81526004016106cc9190611075565b602060405180830381865afa1580156106e9573d6000803e3d6000fd5b505050506040513d601f19601f8201168201806040525081019061070d91906110a5565b101561074e576040517f08c379a00000000000000000000000000000000000000000000000000000000081526004016107459061111e565b60405180910390fd5b60019050919050565b60606002805480602002602001604051908101604052809291908181526020016000905b828210156108a957838290600052602060002090600402016040518060800160405290816000820160009054906101000a900473ffffffffffffffffffffffffffffffffffffffff1673ffffffffffffffffffffffffffffffffffffffff1673ffffffffffffffffffffffffffffffffffffffff16815260200160018201805461080490611233565b80601f016020809104026020016040519081016040528092919081815260200182805461083090611233565b801561087d5780601f106108525761010080835404028352916020019161087d565b820191906000526020600020905b81548152906001019060200180831161086057829003601f168201915b50505050508152602001600282015481526020016003820154815250508152602001906001019061077b565b50505050905090565b60036020528060005260406000206000915090505481565b60005481565b600160009054906101000a900473ffffffffffffffffffffffffffffffffffffffff1681565b6000604051905090565b600080fd5b600080fd5b600073ffffffffffffffffffffffffffffffffffffffff82169050919050565b60006109358261090a565b9050919050565b6109458161092a565b811461095057600080fd5b50565b6000813590506109628161093c565b92915050565b60006020828403121561097e5761097d610900565b5b600061098c84828501610953565b91505092915050565b6000819050919050565b6109a881610995565b82525050565b60006020820190506109c3600083018461099f565b92915050565b6109d281610995565b81146109dd57600080fd5b50565b6000813590506109ef816109c9565b92915050565b60008060408385031215610a0c57610a0b610900565b5b6000610a1a85828601610953565b9250506020610a2b858286016109e0565b9150509250929050565b600080fd5b600080fd5b6000601f19601f8301169050919050565b7f4e487b7100000000000000000000000000000000000000000000000000000000600052604160045260246000fd5b610a8882610a3f565b810181811067ffffffffffffffff82111715610aa757610aa6610a50565b5b80604052505050565b6000610aba6108f6565b9050610ac68282610a7f565b919050565b600067ffffffffffffffff821115610ae657610ae5610a50565b5b610aef82610a3f565b9050602081019050919050565b82818337600083830152505050565b6000610b1e610b1984610acb565b610ab0565b905082815260208101848484011115610b3a57610b39610a3a565b5b610b45848285610afc565b509392505050565b600082601f830112610b6257610b61610a35565b5b8135610b72848260208601610b0b565b91505092915050565b60008060408385031215610b9257610b91610900565b5b6000610ba0858286016109e0565b925050602083013567ffffffffffffffff811115610bc157610bc0610905565b5b610bcd85828601610b4d565b9150509250929050565b600060208284031215610bed57610bec610900565b5b6000610bfb848285016109e0565b91505092915050565b60008115159050919050565b610c1981610c04565b82525050565b6000602082019050610c346000830184610c10565b92915050565b600081519050919050565b600082825260208201905092915050565b6000819050602082019050919050565b610c6f8161092a565b82525050565b600081519050919050565b600082825260208201905092915050565b60005b83811015610caf578082015181840152602081019050610c94565b60008484015250505050565b6000610cc682610c75565b610cd08185610c80565b9350610ce0818560208601610c91565b610ce981610a3f565b840191505092915050565b610cfd81610995565b82525050565b6000608083016000830151610d1b6000860182610c66565b5060208301518482036020860152610d338282610cbb565b9150506040830151610d486040860182610cf4565b506060830151610d5b6060860182610cf4565b508091505092915050565b6000610d728383610d03565b905092915050565b6000602082019050919050565b6000610d9282610c3a565b610d9c8185610c45565b935083602082028501610dae85610c56565b8060005b85811015610dea5784840389528151610dcb8582610d66565b9450610dd683610d7a565b925060208a01995050600181019050610db2565b50829750879550505050505092915050565b60006020820190508181036000830152610e168184610d87565b905092915050565b6000819050919050565b6000610e43610e3e610e398461090a565b610e1e565b61090a565b9050919050565b6000610e5582610e28565b9050919050565b6000610e6782610e4a565b9050919050565b610e7781610e5c565b82525050565b6000602082019050610e926000830184610e6e565b92915050565b600082825260208201905092915050565b7f4e6f7420656e6f7567682073746f7265642062616c616e636500000000000000600082015250565b6000610edf601983610e98565b9150610eea82610ea9565b602082019050919050565b60006020820190508181036000830152610f0e81610ed2565b9050919050565b7f4e487b7100000000000000000000000000000000000000000000000000000000600052601160045260246000fd5b6000610f4f82610995565b9150610f5a83610995565b9250828203905081811115610f7257610f71610f15565b5b92915050565b610f818161092a565b82525050565b6000604082019050610f9c6000830185610f78565b610fa9602083018461099f565b9392505050565b610fb981610c04565b8114610fc457600080fd5b50565b600081519050610fd681610fb0565b92915050565b600060208284031215610ff257610ff1610900565b5b600061100084828501610fc7565b91505092915050565b7f5472616e73666572206661696c65640000000000000000000000000000000000600082015250565b600061103f600f83610e98565b915061104a82611009565b602082019050919050565b6000602082019050818103600083015261106e81611032565b9050919050565b600060208201905061108a6000830184610f78565b92915050565b60008151905061109f816109c9565b92915050565b6000602082840312156110bb576110ba610900565b5b60006110c984828501611090565b91505092915050565b7f4e6f7420656e6f7567682042616c616e63650000000000000000000000000000600082015250565b6000611108601283610e98565b9150611113826110d2565b602082019050919050565b60006020820190508181036000830152611137816110fb565b9050919050565b7f2053746f7265642066756e6374696f6e206f662074686520455243323020636f60008201527f6e747261637420646964746e2070726f63656564000000000000000000000000602082015250565b600061119a603483610e98565b91506111a58261113e565b604082019050919050565b600060208201905081810360008301526111c98161118d565b9050919050565b60006111db82610995565b91506111e683610995565b92508282019050808211156111fe576111fd610f15565b5b92915050565b7f4e487b7100000000000000000000000000000000000000000000000000000000600052602260045260246000fd5b6000600282049050600182168061124b57607f821691505b60208210810361125e5761125d611204565b5b50919050565b60008190508160005260206000209050919050565b60006020601f8301049050919050565b600082821b905092915050565b6000600883026112c67fffffffffffffffffffffffffffffffffffffffffffffffffffffffffffffffff82611289565b6112d08683611289565b95508019841693508086168417925050509392505050565b60006113036112fe6112f984610995565b610e1e565b610995565b9050919050565b6000819050919050565b61131d836112e8565b6113316113298261130a565b848454611296565b825550505050565b600090565b611346611339565b611351818484611314565b505050565b5b818110156113755761136a60008261133e565b600181019050611357565b5050565b601f8211156113ba5761138b81611264565b61139484611279565b810160208510156113a3578190505b6113b76113af85611279565b830182611356565b50505b505050565b600082821c905092915050565b60006113dd600019846008026113bf565b1980831691505092915050565b60006113f683836113cc565b9150826002028217905092915050565b61140f82610c75565b67ffffffffffffffff81111561142857611427610a50565b5b6114328254611233565b61143d828285611379565b600060209050601f831160018114611470576000841561145e578287015190505b61146885826113ea565b8655506114d0565b601f19841661147e86611264565b60005b828110156114a657848901518255600182019150602085019450602081019050611481565b868310156114c357848901516114bf601f8916826113cc565b8355505b6001600288020188555050505b50505050505056fea2646970667358221220a61f216e8e041ce3248155c7cd4926da9a82f5d68c68e48e9a470e17d77cd91e64736f6c63430008110033",
    "linkReferences": {},
    "deployedLinkReferences": {}
}